{
  "_format": "hh-sol-artifact-1",
  "contractName": "CrowdFunding",
  "sourceName": "contracts/CrowdFunding.sol",
  "abi": [
    {
      "inputs": [
        {
          "internalType": "uint256",
          "name": "_platformTax",
          "type": "uint256"
        }
      ],
      "stateMutability": "nonpayable",
      "type": "constructor"
    },
    {
      "inputs": [
        {
          "internalType": "uint256",
          "name": "campaingDeadline",
          "type": "uint256"
        },
        {
          "internalType": "uint256",
          "name": "requestTime",
          "type": "uint256"
        }
      ],
      "name": "DeadLine",
      "type": "error"
    },
    {
      "inputs": [
        {
          "internalType": "uint256",
          "name": "minAmount",
          "type": "uint256"
        },
        {
          "internalType": "uint256",
          "name": "payedAmount",
          "type": "uint256"
        }
      ],
      "name": "LowEtherAmount",
      "type": "error"
    },
    {
      "anonymous": false,
      "inputs": [
        {
          "indexed": false,
          "internalType": "uint256",
          "name": "id",
          "type": "uint256"
        },
        {
          "indexed": false,
          "internalType": "string",
          "name": "actionType",
          "type": "string"
        },
        {
          "indexed": true,
          "internalType": "address",
          "name": "executor",
          "type": "address"
        },
        {
          "indexed": false,
          "internalType": "uint256",
          "name": "timestamp",
          "type": "uint256"
        }
      ],
      "name": "Action",
      "type": "event"
    },
    {
      "anonymous": false,
      "inputs": [
        {
          "indexed": true,
          "internalType": "address",
          "name": "previousOwner",
          "type": "address"
        },
        {
          "indexed": true,
          "internalType": "address",
          "name": "newOwner",
          "type": "address"
        }
      ],
      "name": "OwnershipTransferred",
      "type": "event"
    },
    {
      "inputs": [
        {
          "internalType": "uint256",
          "name": "",
          "type": "uint256"
        }
      ],
      "name": "campaigns",
      "outputs": [
        {
          "internalType": "address",
          "name": "owner",
          "type": "address"
        },
        {
          "internalType": "bool",
          "name": "payedOut",
          "type": "bool"
        },
        {
          "internalType": "string",
          "name": "title",
          "type": "string"
        },
        {
          "internalType": "string",
          "name": "description",
          "type": "string"
        },
        {
          "internalType": "uint256",
          "name": "target",
          "type": "uint256"
        },
        {
          "internalType": "uint256",
          "name": "deadline",
          "type": "uint256"
        },
        {
          "internalType": "uint256",
          "name": "amountCollected",
          "type": "uint256"
        },
        {
          "internalType": "string",
          "name": "image",
          "type": "string"
        }
      ],
      "stateMutability": "view",
      "type": "function"
    },
    {
      "inputs": [
        {
          "internalType": "uint256",
          "name": "_platformTax",
          "type": "uint256"
        }
      ],
      "name": "changeTax",
      "outputs": [],
      "stateMutability": "nonpayable",
      "type": "function"
    },
    {
      "inputs": [
        {
          "internalType": "address",
          "name": "_owner",
          "type": "address"
        },
        {
          "internalType": "string",
          "name": "_title",
          "type": "string"
        },
        {
          "internalType": "string",
          "name": "_description",
          "type": "string"
        },
        {
          "internalType": "uint256",
          "name": "_target",
          "type": "uint256"
        },
        {
          "internalType": "uint256",
          "name": "_deadline",
          "type": "uint256"
        },
        {
          "internalType": "string",
          "name": "_image",
          "type": "string"
        }
      ],
      "name": "createCampaign",
      "outputs": [
        {
          "internalType": "uint256",
          "name": "",
          "type": "uint256"
        }
      ],
      "stateMutability": "nonpayable",
      "type": "function"
    },
    {
      "inputs": [
        {
          "internalType": "uint256",
          "name": "_id",
          "type": "uint256"
        }
      ],
      "name": "deleteCampaign",
      "outputs": [
        {
          "internalType": "bool",
          "name": "",
          "type": "bool"
        }
      ],
      "stateMutability": "nonpayable",
      "type": "function"
    },
    {
      "inputs": [
        {
          "internalType": "uint256",
          "name": "_id",
          "type": "uint256"
        }
      ],
      "name": "donateToCampaign",
      "outputs": [],
      "stateMutability": "payable",
      "type": "function"
    },
    {
      "inputs": [],
      "name": "getCampaigns",
      "outputs": [
        {
          "components": [
            {
              "internalType": "address",
              "name": "owner",
              "type": "address"
            },
            {
              "internalType": "bool",
              "name": "payedOut",
              "type": "bool"
            },
            {
              "internalType": "string",
              "name": "title",
              "type": "string"
            },
            {
              "internalType": "string",
              "name": "description",
              "type": "string"
            },
            {
              "internalType": "uint256",
              "name": "target",
              "type": "uint256"
            },
            {
              "internalType": "uint256",
              "name": "deadline",
              "type": "uint256"
            },
            {
              "internalType": "uint256",
              "name": "amountCollected",
              "type": "uint256"
            },
            {
              "internalType": "string",
              "name": "image",
              "type": "string"
            },
            {
              "internalType": "address[]",
              "name": "donators",
              "type": "address[]"
            },
            {
              "internalType": "uint256[]",
              "name": "donations",
              "type": "uint256[]"
            }
          ],
          "internalType": "struct CrowdFunding.Campaign[]",
          "name": "",
          "type": "tuple[]"
        }
      ],
      "stateMutability": "view",
      "type": "function"
    },
    {
      "inputs": [
        {
          "internalType": "uint256",
          "name": "_id",
          "type": "uint256"
        }
      ],
      "name": "getDonators",
      "outputs": [
        {
          "internalType": "address[]",
          "name": "",
          "type": "address[]"
        },
        {
          "internalType": "uint256[]",
          "name": "",
          "type": "uint256[]"
        }
      ],
      "stateMutability": "view",
      "type": "function"
    },
    {
      "inputs": [
        {
          "internalType": "uint256",
          "name": "_id",
          "type": "uint256"
        }
      ],
      "name": "haltCampaign",
      "outputs": [],
      "stateMutability": "nonpayable",
      "type": "function"
    },
    {
      "inputs": [],
      "name": "numberOfCampaigns",
      "outputs": [
        {
          "internalType": "uint256",
          "name": "",
          "type": "uint256"
        }
      ],
      "stateMutability": "view",
      "type": "function"
    },
    {
      "inputs": [],
      "name": "owner",
      "outputs": [
        {
          "internalType": "address",
          "name": "",
          "type": "address"
        }
      ],
      "stateMutability": "view",
      "type": "function"
    },
    {
      "inputs": [
        {
          "internalType": "uint256",
          "name": "_id",
          "type": "uint256"
        }
      ],
      "name": "payOutToCampaignTeam",
      "outputs": [
        {
          "internalType": "bool",
          "name": "",
          "type": "bool"
        }
      ],
      "stateMutability": "nonpayable",
      "type": "function"
    },
    {
      "inputs": [],
      "name": "platformTax",
      "outputs": [
        {
          "internalType": "uint256",
          "name": "",
          "type": "uint256"
        }
      ],
      "stateMutability": "view",
      "type": "function"
    },
    {
      "inputs": [],
      "name": "renounceOwnership",
      "outputs": [],
      "stateMutability": "nonpayable",
      "type": "function"
    },
    {
      "inputs": [
        {
          "internalType": "address",
          "name": "newOwner",
          "type": "address"
        }
      ],
      "name": "transferOwnership",
      "outputs": [],
      "stateMutability": "nonpayable",
      "type": "function"
    },
    {
      "inputs": [
        {
          "internalType": "uint256",
          "name": "_id",
          "type": "uint256"
        },
        {
          "internalType": "string",
          "name": "_title",
          "type": "string"
        },
        {
          "internalType": "string",
          "name": "_description",
          "type": "string"
        },
        {
          "internalType": "uint256",
          "name": "_target",
          "type": "uint256"
        },
        {
          "internalType": "uint256",
          "name": "_deadline",
          "type": "uint256"
        },
        {
          "internalType": "string",
          "name": "_image",
          "type": "string"
        }
      ],
      "name": "updateCampaign",
      "outputs": [
        {
          "internalType": "bool",
          "name": "",
          "type": "bool"
        }
      ],
      "stateMutability": "nonpayable",
      "type": "function"
    }
  ],
  "bytecode": "0x60806040523480156200001157600080fd5b50604051620033e0380380620033e0833981810160405281019062000037919062000171565b620000576200004b6200006560201b60201c565b6200006d60201b60201c565b8060028190555050620001a3565b600033905090565b60008060009054906101000a900473ffffffffffffffffffffffffffffffffffffffff169050816000806101000a81548173ffffffffffffffffffffffffffffffffffffffff021916908373ffffffffffffffffffffffffffffffffffffffff1602179055508173ffffffffffffffffffffffffffffffffffffffff168173ffffffffffffffffffffffffffffffffffffffff167f8be0079c531659141344cd1fd0a4f28419497f9722a3daafe3b4186f6b6457e060405160405180910390a35050565b600080fd5b6000819050919050565b6200014b8162000136565b81146200015757600080fd5b50565b6000815190506200016b8162000140565b92915050565b6000602082840312156200018a576200018962000131565b5b60006200019a848285016200015a565b91505092915050565b61322d80620001b36000396000f3fe6080604052600436106100e85760003560e01c8063759701931161008a578063a79f928d11610059578063a79f928d146102ef578063b2fabdb01461032c578063d9acef5f14610357578063f2fde38b14610394576100e8565b8063759701931461021f5780638da5cb5b1461025c5780639943e3a114610287578063a6b03633146102c4576100e8565b8063141961bc116100c6578063141961bc1461017f5780633e45c8af146101c357806342a4fda8146101ec578063715018a614610208576100e8565b806307ca140d146100ed5780630e8676b9146101185780630fa91fa914610141575b600080fd5b3480156100f957600080fd5b506101026103bd565b60405161010f9190611b43565b60405180910390f35b34801561012457600080fd5b5061013f600480360381019061013a9190611b9e565b6103c3565b005b34801561014d57600080fd5b5061016860048036038101906101639190611b9e565b610439565b604051610176929190611d79565b60405180910390f35b34801561018b57600080fd5b506101a660048036038101906101a19190611b9e565b61054b565b6040516101ba989796959493929190611e6a565b60405180910390f35b3480156101cf57600080fd5b506101ea60048036038101906101e59190611b9e565b610758565b005b61020660048036038101906102019190611b9e565b61076a565b005b34801561021457600080fd5b5061021d61092c565b005b34801561022b57600080fd5b5061024660048036038101906102419190611b9e565b610940565b6040516102539190611efd565b60405180910390f35b34801561026857600080fd5b50610271610b47565b60405161027e9190611f18565b60405180910390f35b34801561029357600080fd5b506102ae60048036038101906102a99190612094565b610b70565b6040516102bb9190611b43565b60405180910390f35b3480156102d057600080fd5b506102d9610d1c565b6040516102e69190612464565b60405180910390f35b3480156102fb57600080fd5b5061031660048036038101906103119190612486565b61110e565b6040516103239190611efd565b60405180910390f35b34801561033857600080fd5b50610341611333565b60405161034e9190611b43565b60405180910390f35b34801561036357600080fd5b5061037e60048036038101906103799190611b9e565b611339565b60405161038b9190611efd565b60405180910390f35b3480156103a057600080fd5b506103bb60048036038101906103b69190612567565b611553565b005b60035481565b6103cb6115d6565b4260016000838152602001908152602001600020600401819055503373ffffffffffffffffffffffffffffffffffffffff167faee8e5d3bbb2f71a951b5632cee20f7ac487b9f8ab4f66a236f7694b13af7c6a824260405161042e9291906125e0565b60405180910390a250565b6060806001600084815260200190815260200160002060070160016000858152602001908152602001600020600801818054806020026020016040519081016040528092919081815260200182805480156104e957602002820191906000526020600020905b8160009054906101000a900473ffffffffffffffffffffffffffffffffffffffff1673ffffffffffffffffffffffffffffffffffffffff168152602001906001019080831161049f575b505050505091508080548060200260200160405190810160405280929190818152602001828054801561053b57602002820191906000526020600020905b815481526020019060010190808311610527575b5050505050905091509150915091565b60016020528060005260406000206000915090508060000160009054906101000a900473ffffffffffffffffffffffffffffffffffffffff16908060000160149054906101000a900460ff16908060010180546105a79061264b565b80601f01602080910402602001604051908101604052809291908181526020018280546105d39061264b565b80156106205780601f106105f557610100808354040283529160200191610620565b820191906000526020600020905b81548152906001019060200180831161060357829003601f168201915b5050505050908060020180546106359061264b565b80601f01602080910402602001604051908101604052809291908181526020018280546106619061264b565b80156106ae5780601f10610683576101008083540402835291602001916106ae565b820191906000526020600020905b81548152906001019060200180831161069157829003601f168201915b5050505050908060030154908060040154908060050154908060060180546106d59061264b565b80601f01602080910402602001604051908101604052809291908181526020018280546107019061264b565b801561074e5780601f106107235761010080835404028352916020019161074e565b820191906000526020600020905b81548152906001019060200180831161073157829003601f168201915b5050505050905088565b6107606115d6565b8060028190555050565b600034036107b2576001346040517f8351d9170000000000000000000000000000000000000000000000000000000081526004016107a99291906126c1565b60405180910390fd5b6000600160008381526020019081526020016000209050428160040154101561082a576001600083815260200190815260200160002060040154426040517f02277f120000000000000000000000000000000000000000000000000000000081526004016108219291906126ea565b60405180910390fd5b600034905081600701339080600181540180825580915050600190039060005260206000200160009091909190916101000a81548173ffffffffffffffffffffffffffffffffffffffff021916908373ffffffffffffffffffffffffffffffffffffffff160217905550816008018190806001815401808255809150506001900390600052602060002001600090919091909150558082600501546108cf9190612742565b82600501819055503373ffffffffffffffffffffffffffffffffffffffff167faee8e5d3bbb2f71a951b5632cee20f7ac487b9f8ab4f66a236f7694b13af7c6a844260405161091f9291906127c2565b60405180910390a2505050565b6109346115d6565b61093e6000611654565b565b60008161094c81611718565b600073ffffffffffffffffffffffffffffffffffffffff166001600085815260200190815260200160002060000160009054906101000a900473ffffffffffffffffffffffffffffffffffffffff1673ffffffffffffffffffffffffffffffffffffffff16116109f1576040517f08c379a00000000000000000000000000000000000000000000000000000000081526004016109e89061284a565b60405180910390fd5b600060016000858152602001908152602001600020600501541115610a1a57610a19836117fc565b5b60016000848152602001908152602001600020600080820160006101000a81549073ffffffffffffffffffffffffffffffffffffffff02191690556000820160146101000a81549060ff0219169055600182016000610a799190611a20565b600282016000610a899190611a20565b600382016000905560048201600090556005820160009055600682016000610ab19190611a20565b600782016000610ac19190611a60565b600882016000610ad19190611a81565b50503373ffffffffffffffffffffffffffffffffffffffff167faee8e5d3bbb2f71a951b5632cee20f7ac487b9f8ab4f66a236f7694b13af7c6a8442604051610b1b9291906128b6565b60405180910390a2600160036000828254610b3691906128f2565b925050819055506001915050919050565b60008060009054906101000a900473ffffffffffffffffffffffffffffffffffffffff16905090565b60008585858585610b8485858585856118d7565b874210610bc6576040517f08c379a0000000000000000000000000000000000000000000000000000000008152600401610bbd90612998565b60405180910390fd5b6000600160006003548152602001908152602001600020905060036000815480929190610bf2906129b8565b91905055508c8160000160006101000a81548173ffffffffffffffffffffffffffffffffffffffff021916908373ffffffffffffffffffffffffffffffffffffffff1602179055508b816001019081610c4b9190612ba2565b508a816002019081610c5d9190612ba2565b508981600301819055508881600401819055506000816005018190555087816006019081610c8b9190612ba2565b5060008160000160146101000a81548160ff0219169083151502179055503373ffffffffffffffffffffffffffffffffffffffff167faee8e5d3bbb2f71a951b5632cee20f7ac487b9f8ab4f66a236f7694b13af7c6a60035442604051610cf3929190612cc0565b60405180910390a26001600354610d0a91906128f2565b96505050505050509695505050505050565b6060600060035467ffffffffffffffff811115610d3c57610d3b611f69565b5b604051908082528060200260200182016040528015610d7557816020015b610d62611aa2565b815260200190600190039081610d5a5790505b50905060005b60035481101561110657600060016000838152602001908152602001600020905080604051806101400160405290816000820160009054906101000a900473ffffffffffffffffffffffffffffffffffffffff1673ffffffffffffffffffffffffffffffffffffffff1673ffffffffffffffffffffffffffffffffffffffff1681526020016000820160149054906101000a900460ff16151515158152602001600182018054610e2a9061264b565b80601f0160208091040260200160405190810160405280929190818152602001828054610e569061264b565b8015610ea35780601f10610e7857610100808354040283529160200191610ea3565b820191906000526020600020905b815481529060010190602001808311610e8657829003601f168201915b50505050508152602001600282018054610ebc9061264b565b80601f0160208091040260200160405190810160405280929190818152602001828054610ee89061264b565b8015610f355780601f10610f0a57610100808354040283529160200191610f35565b820191906000526020600020905b815481529060010190602001808311610f1857829003601f168201915b50505050508152602001600382015481526020016004820154815260200160058201548152602001600682018054610f6c9061264b565b80601f0160208091040260200160405190810160405280929190818152602001828054610f989061264b565b8015610fe55780601f10610fba57610100808354040283529160200191610fe5565b820191906000526020600020905b815481529060010190602001808311610fc857829003601f168201915b505050505081526020016007820180548060200260200160405190810160405280929190818152602001828054801561107357602002820191906000526020600020905b8160009054906101000a900473ffffffffffffffffffffffffffffffffffffffff1673ffffffffffffffffffffffffffffffffffffffff1681526020019060010190808311611029575b50505050508152602001600882018054806020026020016040519081016040528092919081815260200182805480156110cb57602002820191906000526020600020905b8154815260200190600101908083116110b7575b5050505050815250508383815181106110e7576110e6612cfc565b5b60200260200101819052505080806110fe906129b8565b915050610d7b565b508091505090565b60008661111a81611718565b868686868661112c85858585856118d7565b88421061116e576040517f08c379a000000000000000000000000000000000000000000000000000000000815260040161116590612998565b60405180910390fd5b6000600160008f8152602001908152602001600020905060008160050154146111cc576040517f08c379a00000000000000000000000000000000000000000000000000000000081526004016111c390612d9d565b60405180910390fd5b600073ffffffffffffffffffffffffffffffffffffffff168160000160009054906101000a900473ffffffffffffffffffffffffffffffffffffffff1673ffffffffffffffffffffffffffffffffffffffff161161125f576040517f08c379a00000000000000000000000000000000000000000000000000000000081526004016112569061284a565b60405180910390fd5b8c8160010190816112709190612ba2565b508b8160020190816112829190612ba2565b508a816003018190555089816004018190555060008160050181905550888160060190816112b09190612ba2565b5060008160000160146101000a81548160ff0219169083151502179055503373ffffffffffffffffffffffffffffffffffffffff167faee8e5d3bbb2f71a951b5632cee20f7ac487b9f8ab4f66a236f7694b13af7c6a8f42604051611316929190612e09565b60405180910390a260019750505050505050509695505050505050565b60025481565b60008161134581611718565b600115156001600085815260200190815260200160002060000160149054906101000a900460ff161515036113af576040517f08c379a00000000000000000000000000000000000000000000000000000000081526004016113a690612e91565b60405180910390fd5b6113b7610b47565b73ffffffffffffffffffffffffffffffffffffffff163373ffffffffffffffffffffffffffffffffffffffff161461145d57426001600085815260200190815260200160002060040154111561145c576001600084815260200190815260200160002060040154426040517f02277f120000000000000000000000000000000000000000000000000000000081526004016114539291906126ea565b60405180910390fd5b5b600180600085815260200190815260200160002060000160146101000a81548160ff02191690831515021790555060008061149785611954565b915091506114e66001600087815260200190815260200160002060000160009054906101000a900473ffffffffffffffffffffffffffffffffffffffff1682846114e191906128f2565b61199d565b6114f76114f1610b47565b8261199d565b3373ffffffffffffffffffffffffffffffffffffffff167faee8e5d3bbb2f71a951b5632cee20f7ac487b9f8ab4f66a236f7694b13af7c6a864260405161153f929190612efd565b60405180910390a260019350505050919050565b61155b6115d6565b600073ffffffffffffffffffffffffffffffffffffffff168173ffffffffffffffffffffffffffffffffffffffff16036115ca576040517f08c379a00000000000000000000000000000000000000000000000000000000081526004016115c190612fab565b60405180910390fd5b6115d381611654565b50565b6115de611a18565b73ffffffffffffffffffffffffffffffffffffffff166115fc610b47565b73ffffffffffffffffffffffffffffffffffffffff1614611652576040517f08c379a000000000000000000000000000000000000000000000000000000000815260040161164990613017565b60405180910390fd5b565b60008060009054906101000a900473ffffffffffffffffffffffffffffffffffffffff169050816000806101000a81548173ffffffffffffffffffffffffffffffffffffffff021916908373ffffffffffffffffffffffffffffffffffffffff1602179055508173ffffffffffffffffffffffffffffffffffffffff168173ffffffffffffffffffffffffffffffffffffffff167f8be0079c531659141344cd1fd0a4f28419497f9722a3daafe3b4186f6b6457e060405160405180910390a35050565b6001600082815260200190815260200160002060000160009054906101000a900473ffffffffffffffffffffffffffffffffffffffff1673ffffffffffffffffffffffffffffffffffffffff163373ffffffffffffffffffffffffffffffffffffffff1614806117ba575061178b610b47565b73ffffffffffffffffffffffffffffffffffffffff163373ffffffffffffffffffffffffffffffffffffffff16145b6117f9576040517f08c379a00000000000000000000000000000000000000000000000000000000081526004016117f090613083565b60405180910390fd5b50565b600060016000838152602001908152602001600020905060005b81600701805490508110156118d25761188f82600701828154811061183e5761183d612cfc565b5b9060005260206000200160009054906101000a900473ffffffffffffffffffffffffffffffffffffffff1683600801838154811061187f5761187e612cfc565b5b906000526020600020015461199d565b60008260080182815481106118a7576118a6612cfc565b5b90600052602060002001819055506000826005018190555080806118ca906129b8565b915050611816565b505050565b600085511180156118e9575060008451115b80156118f55750600083115b80156119015750600082115b801561190e575060008151115b61194d576040517f08c379a0000000000000000000000000000000000000000000000000000000008152600401611944906130ef565b60405180910390fd5b5050505050565b6000806000600160008581526020019081526020016000206005015490506000606460025483611984919061310f565b61198e9190613180565b90508181935093505050915091565b60008273ffffffffffffffffffffffffffffffffffffffff16826040516119c3906131e2565b60006040518083038185875af1925050503d8060008114611a00576040519150601f19603f3d011682016040523d82523d6000602084013e611a05565b606091505b5050905080611a1357600080fd5b505050565b600033905090565b508054611a2c9061264b565b6000825580601f10611a3e5750611a5d565b601f016020900490600052602060002090810190611a5c9190611b0d565b5b50565b5080546000825590600052602060002090810190611a7e9190611b0d565b50565b5080546000825590600052602060002090810190611a9f9190611b0d565b50565b604051806101400160405280600073ffffffffffffffffffffffffffffffffffffffff16815260200160001515815260200160608152602001606081526020016000815260200160008152602001600081526020016060815260200160608152602001606081525090565b5b80821115611b26576000816000905550600101611b0e565b5090565b6000819050919050565b611b3d81611b2a565b82525050565b6000602082019050611b586000830184611b34565b92915050565b6000604051905090565b600080fd5b600080fd5b611b7b81611b2a565b8114611b8657600080fd5b50565b600081359050611b9881611b72565b92915050565b600060208284031215611bb457611bb3611b68565b5b6000611bc284828501611b89565b91505092915050565b600081519050919050565b600082825260208201905092915050565b6000819050602082019050919050565b600073ffffffffffffffffffffffffffffffffffffffff82169050919050565b6000611c2282611bf7565b9050919050565b611c3281611c17565b82525050565b6000611c448383611c29565b60208301905092915050565b6000602082019050919050565b6000611c6882611bcb565b611c728185611bd6565b9350611c7d83611be7565b8060005b83811015611cae578151611c958882611c38565b9750611ca083611c50565b925050600181019050611c81565b5085935050505092915050565b600081519050919050565b600082825260208201905092915050565b6000819050602082019050919050565b611cf081611b2a565b82525050565b6000611d028383611ce7565b60208301905092915050565b6000602082019050919050565b6000611d2682611cbb565b611d308185611cc6565b9350611d3b83611cd7565b8060005b83811015611d6c578151611d538882611cf6565b9750611d5e83611d0e565b925050600181019050611d3f565b5085935050505092915050565b60006040820190508181036000830152611d938185611c5d565b90508181036020830152611da78184611d1b565b90509392505050565b611db981611c17565b82525050565b60008115159050919050565b611dd481611dbf565b82525050565b600081519050919050565b600082825260208201905092915050565b60005b83811015611e14578082015181840152602081019050611df9565b60008484015250505050565b6000601f19601f8301169050919050565b6000611e3c82611dda565b611e468185611de5565b9350611e56818560208601611df6565b611e5f81611e20565b840191505092915050565b600061010082019050611e80600083018b611db0565b611e8d602083018a611dcb565b8181036040830152611e9f8189611e31565b90508181036060830152611eb38188611e31565b9050611ec26080830187611b34565b611ecf60a0830186611b34565b611edc60c0830185611b34565b81810360e0830152611eee8184611e31565b90509998505050505050505050565b6000602082019050611f126000830184611dcb565b92915050565b6000602082019050611f2d6000830184611db0565b92915050565b611f3c81611c17565b8114611f4757600080fd5b50565b600081359050611f5981611f33565b92915050565b600080fd5b600080fd5b7f4e487b7100000000000000000000000000000000000000000000000000000000600052604160045260246000fd5b611fa182611e20565b810181811067ffffffffffffffff82111715611fc057611fbf611f69565b5b80604052505050565b6000611fd3611b5e565b9050611fdf8282611f98565b919050565b600067ffffffffffffffff821115611fff57611ffe611f69565b5b61200882611e20565b9050602081019050919050565b82818337600083830152505050565b600061203761203284611fe4565b611fc9565b90508281526020810184848401111561205357612052611f64565b5b61205e848285612015565b509392505050565b600082601f83011261207b5761207a611f5f565b5b813561208b848260208601612024565b91505092915050565b60008060008060008060c087890312156120b1576120b0611b68565b5b60006120bf89828a01611f4a565b965050602087013567ffffffffffffffff8111156120e0576120df611b6d565b5b6120ec89828a01612066565b955050604087013567ffffffffffffffff81111561210d5761210c611b6d565b5b61211989828a01612066565b945050606061212a89828a01611b89565b935050608061213b89828a01611b89565b92505060a087013567ffffffffffffffff81111561215c5761215b611b6d565b5b61216889828a01612066565b9150509295509295509295565b600081519050919050565b600082825260208201905092915050565b6000819050602082019050919050565b6121aa81611dbf565b82525050565b600082825260208201905092915050565b60006121cc82611dda565b6121d681856121b0565b93506121e6818560208601611df6565b6121ef81611e20565b840191505092915050565b600082825260208201905092915050565b600061221682611bcb565b61222081856121fa565b935061222b83611be7565b8060005b8381101561225c5781516122438882611c38565b975061224e83611c50565b92505060018101905061222f565b5085935050505092915050565b600082825260208201905092915050565b600061228582611cbb565b61228f8185612269565b935061229a83611cd7565b8060005b838110156122cb5781516122b28882611cf6565b97506122bd83611d0e565b92505060018101905061229e565b5085935050505092915050565b6000610140830160008301516122f16000860182611c29565b50602083015161230460208601826121a1565b506040830151848203604086015261231c82826121c1565b9150506060830151848203606086015261233682826121c1565b915050608083015161234b6080860182611ce7565b5060a083015161235e60a0860182611ce7565b5060c083015161237160c0860182611ce7565b5060e083015184820360e086015261238982826121c1565b9150506101008301518482036101008601526123a5828261220b565b9150506101208301518482036101208601526123c1828261227a565b9150508091505092915050565b60006123da83836122d8565b905092915050565b6000602082019050919050565b60006123fa82612175565b6124048185612180565b93508360208202850161241685612191565b8060005b85811015612452578484038952815161243385826123ce565b945061243e836123e2565b925060208a0199505060018101905061241a565b50829750879550505050505092915050565b6000602082019050818103600083015261247e81846123ef565b905092915050565b60008060008060008060c087890312156124a3576124a2611b68565b5b60006124b189828a01611b89565b965050602087013567ffffffffffffffff8111156124d2576124d1611b6d565b5b6124de89828a01612066565b955050604087013567ffffffffffffffff8111156124ff576124fe611b6d565b5b61250b89828a01612066565b945050606061251c89828a01611b89565b935050608061252d89828a01611b89565b92505060a087013567ffffffffffffffff81111561254e5761254d611b6d565b5b61255a89828a01612066565b9150509295509295509295565b60006020828403121561257d5761257c611b68565b5b600061258b84828501611f4a565b91505092915050565b7f43616d706169676e2068616c7465640000000000000000000000000000000000600082015250565b60006125ca600f83611de5565b91506125d582612594565b602082019050919050565b60006060820190506125f56000830185611b34565b8181036020830152612606816125bd565b90506126156040830184611b34565b9392505050565b7f4e487b7100000000000000000000000000000000000000000000000000000000600052602260045260246000fd5b6000600282049050600182168061266357607f821691505b6020821081036126765761267561261c565b5b50919050565b6000819050919050565b6000819050919050565b60006126ab6126a66126a18461267c565b612686565b611b2a565b9050919050565b6126bb81612690565b82525050565b60006040820190506126d660008301856126b2565b6126e36020830184611b34565b9392505050565b60006040820190506126ff6000830185611b34565b61270c6020830184611b34565b9392505050565b7f4e487b7100000000000000000000000000000000000000000000000000000000600052601160045260246000fd5b600061274d82611b2a565b915061275883611b2a565b92508282019050808211156127705761276f612713565b5b92915050565b7f446f6e6174696f6e20546f205468652043616d706169676e0000000000000000600082015250565b60006127ac601883611de5565b91506127b782612776565b602082019050919050565b60006060820190506127d76000830185611b34565b81810360208301526127e88161279f565b90506127f76040830184611b34565b9392505050565b7f4e6f2063616d706169676e206578697374207769746820746869732049440000600082015250565b6000612834601e83611de5565b915061283f826127fe565b602082019050919050565b6000602082019050818103600083015261286381612827565b9050919050565b7f43616d706169676e2044656c6574656400000000000000000000000000000000600082015250565b60006128a0601083611de5565b91506128ab8261286a565b602082019050919050565b60006060820190506128cb6000830185611b34565b81810360208301526128dc81612893565b90506128eb6040830184611b34565b9392505050565b60006128fd82611b2a565b915061290883611b2a565b92508282039050818111156129205761291f612713565b5b92915050565b7f54686520646561646c696e652073686f756c642062652061206461746520696e60008201527f20746865206675747572652e0000000000000000000000000000000000000000602082015250565b6000612982602c83611de5565b915061298d82612926565b604082019050919050565b600060208201905081810360008301526129b181612975565b9050919050565b60006129c382611b2a565b91507fffffffffffffffffffffffffffffffffffffffffffffffffffffffffffffffff82036129f5576129f4612713565b5b600182019050919050565b60008190508160005260206000209050919050565b60006020601f8301049050919050565b600082821b905092915050565b600060088302612a627fffffffffffffffffffffffffffffffffffffffffffffffffffffffffffffffff82612a25565b612a6c8683612a25565b95508019841693508086168417925050509392505050565b6000612a9f612a9a612a9584611b2a565b612686565b611b2a565b9050919050565b6000819050919050565b612ab983612a84565b612acd612ac582612aa6565b848454612a32565b825550505050565b600090565b612ae2612ad5565b612aed818484612ab0565b505050565b5b81811015612b1157612b06600082612ada565b600181019050612af3565b5050565b601f821115612b5657612b2781612a00565b612b3084612a15565b81016020851015612b3f578190505b612b53612b4b85612a15565b830182612af2565b50505b505050565b600082821c905092915050565b6000612b7960001984600802612b5b565b1980831691505092915050565b6000612b928383612b68565b9150826002028217905092915050565b612bab82611dda565b67ffffffffffffffff811115612bc457612bc3611f69565b5b612bce825461264b565b612bd9828285612b15565b600060209050601f831160018114612c0c5760008415612bfa578287015190505b612c048582612b86565b865550612c6c565b601f198416612c1a86612a00565b60005b82811015612c4257848901518255600182019150602085019450602081019050612c1d565b86831015612c5f5784890151612c5b601f891682612b68565b8355505b6001600288020188555050505b505050505050565b7f43616d706169676e204372656174656400000000000000000000000000000000600082015250565b6000612caa601083611de5565b9150612cb582612c74565b602082019050919050565b6000606082019050612cd56000830185611b34565b8181036020830152612ce681612c9d565b9050612cf56040830184611b34565b9392505050565b7f4e487b7100000000000000000000000000000000000000000000000000000000600052603260045260246000fd5b7f43616e2774207570646174652064756520746f20616d6f756e7420636f6c6c6560008201527f6374656400000000000000000000000000000000000000000000000000000000602082015250565b6000612d87602483611de5565b9150612d9282612d2b565b604082019050919050565b60006020820190508181036000830152612db681612d7a565b9050919050565b7f43616d706169676e205570646174656400000000000000000000000000000000600082015250565b6000612df3601083611de5565b9150612dfe82612dbd565b602082019050919050565b6000606082019050612e1e6000830185611b34565b8181036020830152612e2f81612de6565b9050612e3e6040830184611b34565b9392505050565b7f46756e64732077697468647261776564206265666f7265000000000000000000600082015250565b6000612e7b601783611de5565b9150612e8682612e45565b602082019050919050565b60006020820190508181036000830152612eaa81612e6e565b9050919050565b7f46756e6473205769746864726177616c00000000000000000000000000000000600082015250565b6000612ee7601083611de5565b9150612ef282612eb1565b602082019050919050565b6000606082019050612f126000830185611b34565b8181036020830152612f2381612eda565b9050612f326040830184611b34565b9392505050565b7f4f776e61626c653a206e6577206f776e657220697320746865207a65726f206160008201527f6464726573730000000000000000000000000000000000000000000000000000602082015250565b6000612f95602683611de5565b9150612fa082612f39565b604082019050919050565b60006020820190508181036000830152612fc481612f88565b9050919050565b7f4f776e61626c653a2063616c6c6572206973206e6f7420746865206f776e6572600082015250565b6000613001602083611de5565b915061300c82612fcb565b602082019050919050565b6000602082019050818103600083015261303081612ff4565b9050919050565b7f556e617574686f72697a656420456e7469747900000000000000000000000000600082015250565b600061306d601383611de5565b915061307882613037565b602082019050919050565b6000602082019050818103600083015261309c81613060565b9050919050565b7f4e756c6c2076616c7565206e6f742061636365707461626c6500000000000000600082015250565b60006130d9601983611de5565b91506130e4826130a3565b602082019050919050565b60006020820190508181036000830152613108816130cc565b9050919050565b600061311a82611b2a565b915061312583611b2a565b925082820261313381611b2a565b9150828204841483151761314a57613149612713565b5b5092915050565b7f4e487b7100000000000000000000000000000000000000000000000000000000600052601260045260246000fd5b600061318b82611b2a565b915061319683611b2a565b9250826131a6576131a5613151565b5b828204905092915050565b600081905092915050565b50565b60006131cc6000836131b1565b91506131d7826131bc565b600082019050919050565b60006131ed826131bf565b915081905091905056fea264697066735822122025c9d96da0327d0a796e705902e8d1118ba7497ecec5f9273b1e41b027f8b9be64736f6c63430008130033",
  "linkReferences": {},
  "deployedLinkReferences": {}
}