{
  "_format": "hh-sol-artifact-1",
  "contractName": "CrowdFunding",
  "sourceName": "contracts/CrowdFunding.sol",
  "abi": [
    {
      "inputs": [
        {
          "internalType": "uint8",
          "name": "_platformTax",
          "type": "uint8"
        }
      ],
      "stateMutability": "nonpayable",
      "type": "constructor"
    },
    {
      "inputs": [
        {
          "internalType": "uint256",
          "name": "campaingDeadline",
          "type": "uint256"
        },
        {
          "internalType": "uint256",
          "name": "requestTime",
          "type": "uint256"
        }
      ],
      "name": "DeadLine",
      "type": "error"
    },
    {
      "inputs": [
        {
          "internalType": "uint256",
          "name": "minAmount",
          "type": "uint256"
        },
        {
          "internalType": "uint256",
          "name": "payedAmount",
          "type": "uint256"
        }
      ],
      "name": "LowEtherAmount",
      "type": "error"
    },
    {
      "anonymous": false,
      "inputs": [
        {
          "indexed": false,
          "internalType": "uint256",
          "name": "id",
          "type": "uint256"
        },
        {
          "indexed": false,
          "internalType": "string",
          "name": "actionType",
          "type": "string"
        },
        {
          "indexed": true,
          "internalType": "address",
          "name": "executor",
          "type": "address"
        },
        {
          "indexed": false,
          "internalType": "uint256",
          "name": "timestamp",
          "type": "uint256"
        }
      ],
      "name": "Action",
      "type": "event"
    },
    {
      "anonymous": false,
      "inputs": [
        {
          "indexed": false,
          "internalType": "bool",
          "name": "State",
          "type": "bool"
        }
      ],
      "name": "ContractStateChanged",
      "type": "event"
    },
    {
      "anonymous": false,
      "inputs": [
        {
          "indexed": true,
          "internalType": "address",
          "name": "previousOwner",
          "type": "address"
        },
        {
          "indexed": true,
          "internalType": "address",
          "name": "newOwner",
          "type": "address"
        }
      ],
      "name": "OwnershipTransferred",
      "type": "event"
    },
    {
      "inputs": [
        {
          "internalType": "uint256",
          "name": "",
          "type": "uint256"
        }
      ],
      "name": "campaigns",
      "outputs": [
        {
          "internalType": "address",
          "name": "owner",
          "type": "address"
        },
        {
          "internalType": "bool",
          "name": "payedOut",
          "type": "bool"
        },
        {
          "internalType": "string",
          "name": "title",
          "type": "string"
        },
        {
          "internalType": "string",
          "name": "description",
          "type": "string"
        },
        {
          "internalType": "uint256",
          "name": "target",
          "type": "uint256"
        },
        {
          "internalType": "uint256",
          "name": "deadline",
          "type": "uint256"
        },
        {
          "internalType": "uint256",
          "name": "amountCollected",
          "type": "uint256"
        },
        {
          "internalType": "string",
          "name": "image",
          "type": "string"
        }
      ],
      "stateMutability": "view",
      "type": "function"
    },
    {
      "inputs": [],
      "name": "changeContractState",
      "outputs": [],
      "stateMutability": "nonpayable",
      "type": "function"
    },
    {
      "inputs": [
        {
          "internalType": "uint8",
          "name": "_platformTax",
          "type": "uint8"
        }
      ],
      "name": "changeTax",
      "outputs": [],
      "stateMutability": "nonpayable",
      "type": "function"
    },
    {
      "inputs": [
        {
          "internalType": "address",
          "name": "_owner",
          "type": "address"
        },
        {
          "internalType": "string",
          "name": "_title",
          "type": "string"
        },
        {
          "internalType": "string",
          "name": "_description",
          "type": "string"
        },
        {
          "internalType": "uint256",
          "name": "_target",
          "type": "uint256"
        },
        {
          "internalType": "uint256",
          "name": "_deadline",
          "type": "uint256"
        },
        {
          "internalType": "string",
          "name": "_image",
          "type": "string"
        }
      ],
      "name": "createCampaign",
      "outputs": [
        {
          "internalType": "uint256",
          "name": "",
          "type": "uint256"
        }
      ],
      "stateMutability": "nonpayable",
      "type": "function"
    },
    {
      "inputs": [
        {
          "internalType": "uint256",
          "name": "_id",
          "type": "uint256"
        }
      ],
      "name": "deleteCampaign",
      "outputs": [
        {
          "internalType": "bool",
          "name": "",
          "type": "bool"
        }
      ],
      "stateMutability": "nonpayable",
      "type": "function"
    },
    {
      "inputs": [
        {
          "internalType": "uint256",
          "name": "_id",
          "type": "uint256"
        }
      ],
      "name": "donateToCampaign",
      "outputs": [],
      "stateMutability": "payable",
      "type": "function"
    },
    {
      "inputs": [],
      "name": "emergencyMode",
      "outputs": [
        {
          "internalType": "bool",
          "name": "",
          "type": "bool"
        }
      ],
      "stateMutability": "view",
      "type": "function"
    },
    {
      "inputs": [],
      "name": "getCampaigns",
      "outputs": [
        {
          "components": [
            {
              "internalType": "address",
              "name": "owner",
              "type": "address"
            },
            {
              "internalType": "bool",
              "name": "payedOut",
              "type": "bool"
            },
            {
              "internalType": "string",
              "name": "title",
              "type": "string"
            },
            {
              "internalType": "string",
              "name": "description",
              "type": "string"
            },
            {
              "internalType": "uint256",
              "name": "target",
              "type": "uint256"
            },
            {
              "internalType": "uint256",
              "name": "deadline",
              "type": "uint256"
            },
            {
              "internalType": "uint256",
              "name": "amountCollected",
              "type": "uint256"
            },
            {
              "internalType": "string",
              "name": "image",
              "type": "string"
            },
            {
              "internalType": "address[]",
              "name": "donators",
              "type": "address[]"
            },
            {
              "internalType": "uint256[]",
              "name": "donations",
              "type": "uint256[]"
            }
          ],
          "internalType": "struct CrowdFunding.Campaign[]",
          "name": "",
          "type": "tuple[]"
        }
      ],
      "stateMutability": "view",
      "type": "function"
    },
    {
      "inputs": [
        {
          "internalType": "uint256",
          "name": "_id",
          "type": "uint256"
        }
      ],
      "name": "getDonators",
      "outputs": [
        {
          "internalType": "address[]",
          "name": "",
          "type": "address[]"
        },
        {
          "internalType": "uint256[]",
          "name": "",
          "type": "uint256[]"
        }
      ],
      "stateMutability": "view",
      "type": "function"
    },
    {
      "inputs": [
        {
          "internalType": "uint256",
          "name": "_id",
          "type": "uint256"
        }
      ],
      "name": "haltCampaign",
      "outputs": [],
      "stateMutability": "nonpayable",
      "type": "function"
    },
    {
      "inputs": [],
      "name": "numberOfCampaigns",
      "outputs": [
        {
          "internalType": "uint24",
          "name": "",
          "type": "uint24"
        }
      ],
      "stateMutability": "view",
      "type": "function"
    },
    {
      "inputs": [],
      "name": "owner",
      "outputs": [
        {
          "internalType": "address",
          "name": "",
          "type": "address"
        }
      ],
      "stateMutability": "view",
      "type": "function"
    },
    {
      "inputs": [
        {
          "internalType": "uint256",
          "name": "_id",
          "type": "uint256"
        }
      ],
      "name": "payOutToCampaignTeam",
      "outputs": [
        {
          "internalType": "bool",
          "name": "",
          "type": "bool"
        }
      ],
      "stateMutability": "nonpayable",
      "type": "function"
    },
    {
      "inputs": [],
      "name": "platformTax",
      "outputs": [
        {
          "internalType": "uint8",
          "name": "",
          "type": "uint8"
        }
      ],
      "stateMutability": "view",
      "type": "function"
    },
    {
      "inputs": [],
      "name": "renounceOwnership",
      "outputs": [],
      "stateMutability": "nonpayable",
      "type": "function"
    },
    {
      "inputs": [
        {
          "internalType": "address",
          "name": "newOwner",
          "type": "address"
        }
      ],
      "name": "transferOwnership",
      "outputs": [],
      "stateMutability": "nonpayable",
      "type": "function"
    },
    {
      "inputs": [
        {
          "internalType": "uint256",
          "name": "_id",
          "type": "uint256"
        },
        {
          "internalType": "string",
          "name": "_title",
          "type": "string"
        },
        {
          "internalType": "string",
          "name": "_description",
          "type": "string"
        },
        {
          "internalType": "uint256",
          "name": "_target",
          "type": "uint256"
        },
        {
          "internalType": "uint256",
          "name": "_deadline",
          "type": "uint256"
        },
        {
          "internalType": "string",
          "name": "_image",
          "type": "string"
        }
      ],
      "name": "updateCampaign",
      "outputs": [
        {
          "internalType": "bool",
          "name": "",
          "type": "bool"
        }
      ],
      "stateMutability": "nonpayable",
      "type": "function"
    },
    {
      "inputs": [
        {
          "internalType": "uint256",
          "name": "_startId",
          "type": "uint256"
        },
        {
          "internalType": "uint256",
          "name": "_endId",
          "type": "uint256"
        }
      ],
      "name": "withdrawFunds",
      "outputs": [],
      "stateMutability": "nonpayable",
      "type": "function"
    }
  ],
  "bytecode": "0x60806040523480156200001157600080fd5b5060405162003c0b38038062003c0b833981810160405281019062000037919062000188565b620000576200004b6200007960201b60201c565b6200008160201b60201c565b80600260006101000a81548160ff021916908360ff16021790555050620001ba565b600033905090565b60008060009054906101000a900473ffffffffffffffffffffffffffffffffffffffff169050816000806101000a81548173ffffffffffffffffffffffffffffffffffffffff021916908373ffffffffffffffffffffffffffffffffffffffff1602179055508173ffffffffffffffffffffffffffffffffffffffff168173ffffffffffffffffffffffffffffffffffffffff167f8be0079c531659141344cd1fd0a4f28419497f9722a3daafe3b4186f6b6457e060405160405180910390a35050565b600080fd5b600060ff82169050919050565b62000162816200014a565b81146200016e57600080fd5b50565b600081519050620001828162000157565b92915050565b600060208284031215620001a157620001a062000145565b5b6000620001b18482850162000171565b91505092915050565b613a4180620001ca6000396000f3fe6080604052600436106101095760003560e01c80637597019311610095578063a79f928d11610064578063a79f928d14610352578063b2fabdb01461038f578063d9acef5f146103ba578063e5253105146103f7578063f2fde38b1461042057610109565b806375970193146102825780638da5cb5b146102bf5780639943e3a1146102ea578063a6b036331461032757610109565b8063141961bc116100dc578063141961bc146101cb5780633857a5ac1461020f57806342a4fda8146102265780634cf291d614610242578063715018a61461026b57610109565b806307ca140d1461010e5780630905f560146101395780630e8676b9146101645780630fa91fa91461018d575b600080fd5b34801561011a57600080fd5b50610123610449565b6040516101309190612134565b60405180910390f35b34801561014557600080fd5b5061014e61045e565b60405161015b919061216a565b60405180910390f35b34801561017057600080fd5b5061018b600480360381019061018691906121cf565b610471565b005b34801561019957600080fd5b506101b460048036038101906101af91906121cf565b6104e7565b6040516101c29291906123aa565b60405180910390f35b3480156101d757600080fd5b506101f260048036038101906101ed91906121cf565b6105f9565b60405161020698979695949392919061248f565b60405180910390f35b34801561021b57600080fd5b50610224610806565b005b610240600480360381019061023b91906121cf565b610880565b005b34801561024e57600080fd5b506102696004803603810190610264919061255b565b610b53565b005b34801561027757600080fd5b50610280610b79565b005b34801561028e57600080fd5b506102a960048036038101906102a491906121cf565b610b8d565b6040516102b6919061216a565b60405180910390f35b3480156102cb57600080fd5b506102d4610dd1565b6040516102e19190612588565b60405180910390f35b3480156102f657600080fd5b50610311600480360381019061030c9190612704565b610dfa565b60405161031e91906127e5565b60405180910390f35b34801561033357600080fd5b5061033c61101d565b6040516103499190612aef565b60405180910390f35b34801561035e57600080fd5b5061037960048036038101906103749190612b11565b611437565b604051610386919061216a565b60405180910390f35b34801561039b57600080fd5b506103a4611676565b6040516103b19190612c01565b60405180910390f35b3480156103c657600080fd5b506103e160048036038101906103dc91906121cf565b611689565b6040516103ee919061216a565b60405180910390f35b34801561040357600080fd5b5061041e60048036038101906104199190612c1c565b6118b6565b005b34801561042c57600080fd5b5061044760048036038101906104429190612c5c565b611906565b005b600260019054906101000a900462ffffff1681565b600260049054906101000a900460ff1681565b610479611989565b4260016000838152602001908152602001600020600401819055503373ffffffffffffffffffffffffffffffffffffffff167faee8e5d3bbb2f71a951b5632cee20f7ac487b9f8ab4f66a236f7694b13af7c6a82426040516104dc929190612cd5565b60405180910390a250565b60608060016000848152602001908152602001600020600701600160008581526020019081526020016000206008018180548060200260200160405190810160405280929190818152602001828054801561059757602002820191906000526020600020905b8160009054906101000a900473ffffffffffffffffffffffffffffffffffffffff1673ffffffffffffffffffffffffffffffffffffffff168152602001906001019080831161054d575b50505050509150808054806020026020016040519081016040528092919081815260200182805480156105e957602002820191906000526020600020905b8154815260200190600101908083116105d5575b5050505050905091509150915091565b60016020528060005260406000206000915090508060000160009054906101000a900473ffffffffffffffffffffffffffffffffffffffff16908060000160149054906101000a900460ff169080600101805461065590612d40565b80601f016020809104026020016040519081016040528092919081815260200182805461068190612d40565b80156106ce5780601f106106a3576101008083540402835291602001916106ce565b820191906000526020600020905b8154815290600101906020018083116106b157829003601f168201915b5050505050908060020180546106e390612d40565b80601f016020809104026020016040519081016040528092919081815260200182805461070f90612d40565b801561075c5780601f106107315761010080835404028352916020019161075c565b820191906000526020600020905b81548152906001019060200180831161073f57829003601f168201915b50505050509080600301549080600401549080600501549080600601805461078390612d40565b80601f01602080910402602001604051908101604052809291908181526020018280546107af90612d40565b80156107fc5780601f106107d1576101008083540402835291602001916107fc565b820191906000526020600020905b8154815290600101906020018083116107df57829003601f168201915b5050505050905088565b61080e611989565b600260049054906101000a900460ff1615600260046101000a81548160ff0219169083151502179055507f2cde22acc8fd53a00979e46849e256a19250dc0d6626358410d5a4ee27ad6c79600260049054906101000a900460ff16604051610876919061216a565b60405180910390a1565b600260049054906101000a900460ff161561089a57600080fd5b600034036108e2576001346040517f8351d9170000000000000000000000000000000000000000000000000000000081526004016108d9929190612db6565b60405180910390fd5b6000600160008381526020019081526020016000209050600073ffffffffffffffffffffffffffffffffffffffff168160000160009054906101000a900473ffffffffffffffffffffffffffffffffffffffff1673ffffffffffffffffffffffffffffffffffffffff161161098c576040517f08c379a000000000000000000000000000000000000000000000000000000000815260040161098390612e2b565b60405180910390fd5b42816004015410156109ed576001600083815260200190815260200160002060040154426040517f02277f120000000000000000000000000000000000000000000000000000000081526004016109e4929190612e4b565b60405180910390fd5b6000349050610a09818360050154611a0790919063ffffffff16565b82600501541115610a4f576040517f08c379a0000000000000000000000000000000000000000000000000000000008152600401610a4690612ec0565b60405180910390fd5b610a66818360050154611a0790919063ffffffff16565b826005018190555081600701339080600181540180825580915050600190039060005260206000200160009091909190916101000a81548173ffffffffffffffffffffffffffffffffffffffff021916908373ffffffffffffffffffffffffffffffffffffffff160217905550816008018190806001815401808255809150506001900390600052602060002001600090919091909150553373ffffffffffffffffffffffffffffffffffffffff167faee8e5d3bbb2f71a951b5632cee20f7ac487b9f8ab4f66a236f7694b13af7c6a8442604051610b46929190612f2c565b60405180910390a2505050565b610b5b611989565b80600260006101000a81548160ff021916908360ff16021790555050565b610b81611989565b610b8b6000611a1d565b565b600081610b9981611ae1565b600260049054906101000a900460ff1615610bb357600080fd5b600073ffffffffffffffffffffffffffffffffffffffff166001600085815260200190815260200160002060000160009054906101000a900473ffffffffffffffffffffffffffffffffffffffff1673ffffffffffffffffffffffffffffffffffffffff1611610c58576040517f08c379a0000000000000000000000000000000000000000000000000000000008152600401610c4f90612e2b565b60405180910390fd5b600060016000858152602001908152602001600020600501541115610c8157610c8083611bc5565b5b60016000848152602001908152602001600020600080820160006101000a81549073ffffffffffffffffffffffffffffffffffffffff02191690556000820160146101000a81549060ff0219169055600182016000610ce0919061200c565b600282016000610cf0919061200c565b600382016000905560048201600090556005820160009055600682016000610d18919061200c565b600782016000610d28919061204c565b600882016000610d38919061206d565b50503373ffffffffffffffffffffffffffffffffffffffff167faee8e5d3bbb2f71a951b5632cee20f7ac487b9f8ab4f66a236f7694b13af7c6a8442604051610d82929190612fb4565b60405180910390a26001600260018282829054906101000a900462ffffff16610dab919061301f565b92506101000a81548162ffffff021916908362ffffff1602179055506001915050919050565b60008060009054906101000a900473ffffffffffffffffffffffffffffffffffffffff16905090565b60008585858585610e0e8585858585611ca1565b600260049054906101000a900460ff1615610e2857600080fd5b874210610e6a576040517f08c379a0000000000000000000000000000000000000000000000000000000008152600401610e61906130a2565b60405180910390fd5b600060016000600260019054906101000a900462ffffff1662ffffff16815260200190815260200160002090506002600181819054906101000a900462ffffff1680929190610eb8906130c2565b91906101000a81548162ffffff021916908362ffffff160217905550508c8160000160006101000a81548173ffffffffffffffffffffffffffffffffffffffff021916908373ffffffffffffffffffffffffffffffffffffffff1602179055508b816001019081610f29919061328f565b508a816002019081610f3b919061328f565b508981600301819055508881600401819055506000816005018190555087816006019081610f69919061328f565b5060008160000160146101000a81548160ff0219169083151502179055503373ffffffffffffffffffffffffffffffffffffffff167faee8e5d3bbb2f71a951b5632cee20f7ac487b9f8ab4f66a236f7694b13af7c6a600260019054906101000a900462ffffff1642604051610fe09291906133de565b60405180910390a26001600260019054906101000a900462ffffff16611006919061301f565b62ffffff1696505050505050509695505050505050565b60606000600260019054906101000a900462ffffff1662ffffff1667ffffffffffffffff811115611051576110506125d9565b5b60405190808252806020026020018201604052801561108a57816020015b61107761208e565b81526020019060019003908161106f5790505b50905060005b600260019054906101000a900462ffffff1662ffffff1681101561142f57600060016000838152602001908152602001600020905080604051806101400160405290816000820160009054906101000a900473ffffffffffffffffffffffffffffffffffffffff1673ffffffffffffffffffffffffffffffffffffffff1673ffffffffffffffffffffffffffffffffffffffff1681526020016000820160149054906101000a900460ff1615151515815260200160018201805461115390612d40565b80601f016020809104026020016040519081016040528092919081815260200182805461117f90612d40565b80156111cc5780601f106111a1576101008083540402835291602001916111cc565b820191906000526020600020905b8154815290600101906020018083116111af57829003601f168201915b505050505081526020016002820180546111e590612d40565b80601f016020809104026020016040519081016040528092919081815260200182805461121190612d40565b801561125e5780601f106112335761010080835404028352916020019161125e565b820191906000526020600020905b81548152906001019060200180831161124157829003601f168201915b5050505050815260200160038201548152602001600482015481526020016005820154815260200160068201805461129590612d40565b80601f01602080910402602001604051908101604052809291908181526020018280546112c190612d40565b801561130e5780601f106112e35761010080835404028352916020019161130e565b820191906000526020600020905b8154815290600101906020018083116112f157829003601f168201915b505050505081526020016007820180548060200260200160405190810160405280929190818152602001828054801561139c57602002820191906000526020600020905b8160009054906101000a900473ffffffffffffffffffffffffffffffffffffffff1673ffffffffffffffffffffffffffffffffffffffff1681526020019060010190808311611352575b50505050508152602001600882018054806020026020016040519081016040528092919081815260200182805480156113f457602002820191906000526020600020905b8154815260200190600101908083116113e0575b5050505050815250508383815181106114105761140f61341a565b5b602002602001018190525050808061142790613449565b915050611090565b508091505090565b60008661144381611ae1565b86868686866114558585858585611ca1565b600260049054906101000a900460ff161561146f57600080fd5b8842106114b1576040517f08c379a00000000000000000000000000000000000000000000000000000000081526004016114a8906130a2565b60405180910390fd5b6000600160008f81526020019081526020016000209050600073ffffffffffffffffffffffffffffffffffffffff168160000160009054906101000a900473ffffffffffffffffffffffffffffffffffffffff1673ffffffffffffffffffffffffffffffffffffffff161161155b576040517f08c379a000000000000000000000000000000000000000000000000000000000815260040161155290612e2b565b60405180910390fd5b60008160050154146115a2576040517f08c379a0000000000000000000000000000000000000000000000000000000008152600401611599906134dd565b60405180910390fd5b8c8160010190816115b3919061328f565b508b8160020190816115c5919061328f565b508a816003018190555089816004018190555060008160050181905550888160060190816115f3919061328f565b5060008160000160146101000a81548160ff0219169083151502179055503373ffffffffffffffffffffffffffffffffffffffff167faee8e5d3bbb2f71a951b5632cee20f7ac487b9f8ab4f66a236f7694b13af7c6a8f42604051611659929190613549565b60405180910390a260019750505050505050509695505050505050565b600260009054906101000a900460ff1681565b60008161169581611ae1565b600260049054906101000a900460ff16156116af57600080fd5b600115156001600085815260200190815260200160002060000160149054906101000a900460ff16151503611719576040517f08c379a0000000000000000000000000000000000000000000000000000000008152600401611710906135d1565b60405180910390fd5b611721610dd1565b73ffffffffffffffffffffffffffffffffffffffff163373ffffffffffffffffffffffffffffffffffffffff16146117c75742600160008581526020019081526020016000206004015411156117c6576001600084815260200190815260200160002060040154426040517f02277f120000000000000000000000000000000000000000000000000000000081526004016117bd929190612e4b565b60405180910390fd5b5b600180600085815260200190815260200160002060000160146101000a81548160ff02191690831515021790555060008061180185611d1e565b915091506118506001600087815260200190815260200160002060000160009054906101000a900473ffffffffffffffffffffffffffffffffffffffff16828461184b91906135f1565b611d77565b5061185a81611df9565b3373ffffffffffffffffffffffffffffffffffffffff167faee8e5d3bbb2f71a951b5632cee20f7ac487b9f8ab4f66a236f7694b13af7c6a86426040516118a2929190613671565b60405180910390a260019350505050919050565b6118be611989565b600260049054906101000a900460ff166118d757600080fd5b60008290505b818111611901576118ee8383611e0e565b80806118f990613449565b9150506118dd565b505050565b61190e611989565b600073ffffffffffffffffffffffffffffffffffffffff168173ffffffffffffffffffffffffffffffffffffffff160361197d576040517f08c379a00000000000000000000000000000000000000000000000000000000081526004016119749061371f565b60405180910390fd5b61198681611a1d565b50565b611991612004565b73ffffffffffffffffffffffffffffffffffffffff166119af610dd1565b73ffffffffffffffffffffffffffffffffffffffff1614611a05576040517f08c379a00000000000000000000000000000000000000000000000000000000081526004016119fc9061378b565b60405180910390fd5b565b60008183611a1591906137ab565b905092915050565b60008060009054906101000a900473ffffffffffffffffffffffffffffffffffffffff169050816000806101000a81548173ffffffffffffffffffffffffffffffffffffffff021916908373ffffffffffffffffffffffffffffffffffffffff1602179055508173ffffffffffffffffffffffffffffffffffffffff168173ffffffffffffffffffffffffffffffffffffffff167f8be0079c531659141344cd1fd0a4f28419497f9722a3daafe3b4186f6b6457e060405160405180910390a35050565b6001600082815260200190815260200160002060000160009054906101000a900473ffffffffffffffffffffffffffffffffffffffff1673ffffffffffffffffffffffffffffffffffffffff163373ffffffffffffffffffffffffffffffffffffffff161480611b835750611b54610dd1565b73ffffffffffffffffffffffffffffffffffffffff163373ffffffffffffffffffffffffffffffffffffffff16145b611bc2576040517f08c379a0000000000000000000000000000000000000000000000000000000008152600401611bb99061382b565b60405180910390fd5b50565b600060016000838152602001908152602001600020905060005b8160070180549050811015611c9257611c58826007018281548110611c0757611c0661341a565b5b9060005260206000200160009054906101000a900473ffffffffffffffffffffffffffffffffffffffff16836008018381548110611c4857611c4761341a565b5b9060005260206000200154611d77565b506000826008018281548110611c7157611c7061341a565b5b90600052602060002001819055508080611c8a90613449565b915050611bdf565b50600081600501819055505050565b60008551118015611cb3575060008451115b8015611cbf5750600083115b8015611ccb5750600082115b8015611cd8575060008151115b611d17576040517f08c379a0000000000000000000000000000000000000000000000000000000008152600401611d0e90613897565b60405180910390fd5b5050505050565b60008060006001600085815260200190815260200160002060050154905060006064600260009054906101000a900460ff1660ff1683611d5e91906138b7565b611d689190613928565b90508181935093505050915091565b6000808373ffffffffffffffffffffffffffffffffffffffff1683604051611d9e9061398a565b60006040518083038185875af1925050503d8060008114611ddb576040519150601f19603f3d011682016040523d82523d6000602084013e611de0565b606091505b5050905080611dee57600080fd5b600191505092915050565b611e0a611e04610dd1565b82611d77565b5050565b808210611e50576040517f08c379a0000000000000000000000000000000000000000000000000000000008152600401611e47906139eb565b60405180910390fd5b600073ffffffffffffffffffffffffffffffffffffffff166001600083815260200190815260200160002060000160009054906101000a900473ffffffffffffffffffffffffffffffffffffffff1673ffffffffffffffffffffffffffffffffffffffff1611611ef5576040517f08c379a0000000000000000000000000000000000000000000000000000000008152600401611eec90612e2b565b60405180910390fd5b60008290505b81811015611fff5760006001600083815260200190815260200160002090506000816007018054905090506000811115611fea5760005b81811015611fde57611fa4836007018281548110611f5357611f5261341a565b5b9060005260206000200160009054906101000a900473ffffffffffffffffffffffffffffffffffffffff16846008018381548110611f9457611f9361341a565b5b9060005260206000200154611d77565b506000836008018281548110611fbd57611fbc61341a565b5b90600052602060002001819055508080611fd690613449565b915050611f32565b50600082600501819055505b50508080611ff790613449565b915050611efb565b505050565b600033905090565b50805461201890612d40565b6000825580601f1061202a5750612049565b601f01602090049060005260206000209081019061204891906120f9565b5b50565b508054600082559060005260206000209081019061206a91906120f9565b50565b508054600082559060005260206000209081019061208b91906120f9565b50565b604051806101400160405280600073ffffffffffffffffffffffffffffffffffffffff16815260200160001515815260200160608152602001606081526020016000815260200160008152602001600081526020016060815260200160608152602001606081525090565b5b808211156121125760008160009055506001016120fa565b5090565b600062ffffff82169050919050565b61212e81612116565b82525050565b60006020820190506121496000830184612125565b92915050565b60008115159050919050565b6121648161214f565b82525050565b600060208201905061217f600083018461215b565b92915050565b6000604051905090565b600080fd5b600080fd5b6000819050919050565b6121ac81612199565b81146121b757600080fd5b50565b6000813590506121c9816121a3565b92915050565b6000602082840312156121e5576121e461218f565b5b60006121f3848285016121ba565b91505092915050565b600081519050919050565b600082825260208201905092915050565b6000819050602082019050919050565b600073ffffffffffffffffffffffffffffffffffffffff82169050919050565b600061225382612228565b9050919050565b61226381612248565b82525050565b6000612275838361225a565b60208301905092915050565b6000602082019050919050565b6000612299826121fc565b6122a38185612207565b93506122ae83612218565b8060005b838110156122df5781516122c68882612269565b97506122d183612281565b9250506001810190506122b2565b5085935050505092915050565b600081519050919050565b600082825260208201905092915050565b6000819050602082019050919050565b61232181612199565b82525050565b60006123338383612318565b60208301905092915050565b6000602082019050919050565b6000612357826122ec565b61236181856122f7565b935061236c83612308565b8060005b8381101561239d5781516123848882612327565b975061238f8361233f565b925050600181019050612370565b5085935050505092915050565b600060408201905081810360008301526123c4818561228e565b905081810360208301526123d8818461234c565b90509392505050565b6123ea81612248565b82525050565b600081519050919050565b600082825260208201905092915050565b60005b8381101561242a57808201518184015260208101905061240f565b60008484015250505050565b6000601f19601f8301169050919050565b6000612452826123f0565b61245c81856123fb565b935061246c81856020860161240c565b61247581612436565b840191505092915050565b61248981612199565b82525050565b6000610100820190506124a5600083018b6123e1565b6124b2602083018a61215b565b81810360408301526124c48189612447565b905081810360608301526124d88188612447565b90506124e76080830187612480565b6124f460a0830186612480565b61250160c0830185612480565b81810360e08301526125138184612447565b90509998505050505050505050565b600060ff82169050919050565b61253881612522565b811461254357600080fd5b50565b6000813590506125558161252f565b92915050565b6000602082840312156125715761257061218f565b5b600061257f84828501612546565b91505092915050565b600060208201905061259d60008301846123e1565b92915050565b6125ac81612248565b81146125b757600080fd5b50565b6000813590506125c9816125a3565b92915050565b600080fd5b600080fd5b7f4e487b7100000000000000000000000000000000000000000000000000000000600052604160045260246000fd5b61261182612436565b810181811067ffffffffffffffff821117156126305761262f6125d9565b5b80604052505050565b6000612643612185565b905061264f8282612608565b919050565b600067ffffffffffffffff82111561266f5761266e6125d9565b5b61267882612436565b9050602081019050919050565b82818337600083830152505050565b60006126a76126a284612654565b612639565b9050828152602081018484840111156126c3576126c26125d4565b5b6126ce848285612685565b509392505050565b600082601f8301126126eb576126ea6125cf565b5b81356126fb848260208601612694565b91505092915050565b60008060008060008060c087890312156127215761272061218f565b5b600061272f89828a016125ba565b965050602087013567ffffffffffffffff8111156127505761274f612194565b5b61275c89828a016126d6565b955050604087013567ffffffffffffffff81111561277d5761277c612194565b5b61278989828a016126d6565b945050606061279a89828a016121ba565b93505060806127ab89828a016121ba565b92505060a087013567ffffffffffffffff8111156127cc576127cb612194565b5b6127d889828a016126d6565b9150509295509295509295565b60006020820190506127fa6000830184612480565b92915050565b600081519050919050565b600082825260208201905092915050565b6000819050602082019050919050565b6128358161214f565b82525050565b600082825260208201905092915050565b6000612857826123f0565b612861818561283b565b935061287181856020860161240c565b61287a81612436565b840191505092915050565b600082825260208201905092915050565b60006128a1826121fc565b6128ab8185612885565b93506128b683612218565b8060005b838110156128e75781516128ce8882612269565b97506128d983612281565b9250506001810190506128ba565b5085935050505092915050565b600082825260208201905092915050565b6000612910826122ec565b61291a81856128f4565b935061292583612308565b8060005b8381101561295657815161293d8882612327565b97506129488361233f565b925050600181019050612929565b5085935050505092915050565b60006101408301600083015161297c600086018261225a565b50602083015161298f602086018261282c565b50604083015184820360408601526129a7828261284c565b915050606083015184820360608601526129c1828261284c565b91505060808301516129d66080860182612318565b5060a08301516129e960a0860182612318565b5060c08301516129fc60c0860182612318565b5060e083015184820360e0860152612a14828261284c565b915050610100830151848203610100860152612a308282612896565b915050610120830151848203610120860152612a4c8282612905565b9150508091505092915050565b6000612a658383612963565b905092915050565b6000602082019050919050565b6000612a8582612800565b612a8f818561280b565b935083602082028501612aa18561281c565b8060005b85811015612add5784840389528151612abe8582612a59565b9450612ac983612a6d565b925060208a01995050600181019050612aa5565b50829750879550505050505092915050565b60006020820190508181036000830152612b098184612a7a565b905092915050565b60008060008060008060c08789031215612b2e57612b2d61218f565b5b6000612b3c89828a016121ba565b965050602087013567ffffffffffffffff811115612b5d57612b5c612194565b5b612b6989828a016126d6565b955050604087013567ffffffffffffffff811115612b8a57612b89612194565b5b612b9689828a016126d6565b9450506060612ba789828a016121ba565b9350506080612bb889828a016121ba565b92505060a087013567ffffffffffffffff811115612bd957612bd8612194565b5b612be589828a016126d6565b9150509295509295509295565b612bfb81612522565b82525050565b6000602082019050612c166000830184612bf2565b92915050565b60008060408385031215612c3357612c3261218f565b5b6000612c41858286016121ba565b9250506020612c52858286016121ba565b9150509250929050565b600060208284031215612c7257612c7161218f565b5b6000612c80848285016125ba565b91505092915050565b7f43616d706169676e2068616c7465640000000000000000000000000000000000600082015250565b6000612cbf600f836123fb565b9150612cca82612c89565b602082019050919050565b6000606082019050612cea6000830185612480565b8181036020830152612cfb81612cb2565b9050612d0a6040830184612480565b9392505050565b7f4e487b7100000000000000000000000000000000000000000000000000000000600052602260045260246000fd5b60006002820490506001821680612d5857607f821691505b602082108103612d6b57612d6a612d11565b5b50919050565b6000819050919050565b6000819050919050565b6000612da0612d9b612d9684612d71565b612d7b565b612199565b9050919050565b612db081612d85565b82525050565b6000604082019050612dcb6000830185612da7565b612dd86020830184612480565b9392505050565b7f4e6f2063616d706169676e206578697374207769746820746869732049440000600082015250565b6000612e15601e836123fb565b9150612e2082612ddf565b602082019050919050565b60006020820190508181036000830152612e4481612e08565b9050919050565b6000604082019050612e606000830185612480565b612e6d6020830184612480565b9392505050565b7f54617267657420616d6f756e7420686173207265616368656400000000000000600082015250565b6000612eaa6019836123fb565b9150612eb582612e74565b602082019050919050565b60006020820190508181036000830152612ed981612e9d565b9050919050565b7f446f6e6174696f6e20546f205468652043616d706169676e0000000000000000600082015250565b6000612f166018836123fb565b9150612f2182612ee0565b602082019050919050565b6000606082019050612f416000830185612480565b8181036020830152612f5281612f09565b9050612f616040830184612480565b9392505050565b7f43616d706169676e2044656c6574656400000000000000000000000000000000600082015250565b6000612f9e6010836123fb565b9150612fa982612f68565b602082019050919050565b6000606082019050612fc96000830185612480565b8181036020830152612fda81612f91565b9050612fe96040830184612480565b9392505050565b7f4e487b7100000000000000000000000000000000000000000000000000000000600052601160045260246000fd5b600061302a82612116565b915061303583612116565b9250828203905062ffffff8111156130505761304f612ff0565b5b92915050565b7f446561646c696e65206d75737420626520696e20746865206675747572650000600082015250565b600061308c601e836123fb565b915061309782613056565b602082019050919050565b600060208201905081810360008301526130bb8161307f565b9050919050565b60006130cd82612116565b915062ffffff82036130e2576130e1612ff0565b5b600182019050919050565b60008190508160005260206000209050919050565b60006020601f8301049050919050565b600082821b905092915050565b60006008830261314f7fffffffffffffffffffffffffffffffffffffffffffffffffffffffffffffffff82613112565b6131598683613112565b95508019841693508086168417925050509392505050565b600061318c61318761318284612199565b612d7b565b612199565b9050919050565b6000819050919050565b6131a683613171565b6131ba6131b282613193565b84845461311f565b825550505050565b600090565b6131cf6131c2565b6131da81848461319d565b505050565b5b818110156131fe576131f36000826131c7565b6001810190506131e0565b5050565b601f82111561324357613214816130ed565b61321d84613102565b8101602085101561322c578190505b61324061323885613102565b8301826131df565b50505b505050565b600082821c905092915050565b600061326660001984600802613248565b1980831691505092915050565b600061327f8383613255565b9150826002028217905092915050565b613298826123f0565b67ffffffffffffffff8111156132b1576132b06125d9565b5b6132bb8254612d40565b6132c6828285613202565b600060209050601f8311600181146132f957600084156132e7578287015190505b6132f18582613273565b865550613359565b601f198416613307866130ed565b60005b8281101561332f5784890151825560018201915060208501945060208101905061330a565b8683101561334c5784890151613348601f891682613255565b8355505b6001600288020188555050505b505050505050565b600061337c61337761337284612116565b612d7b565b612199565b9050919050565b61338c81613361565b82525050565b7f43616d706169676e204372656174656400000000000000000000000000000000600082015250565b60006133c86010836123fb565b91506133d382613392565b602082019050919050565b60006060820190506133f36000830185613383565b8181036020830152613404816133bb565b90506134136040830184612480565b9392505050565b7f4e487b7100000000000000000000000000000000000000000000000000000000600052603260045260246000fd5b600061345482612199565b91507fffffffffffffffffffffffffffffffffffffffffffffffffffffffffffffffff820361348657613485612ff0565b5b600182019050919050565b7f557064617465206572726f723a20616d6f756e7420636f6c6c65637465640000600082015250565b60006134c7601e836123fb565b91506134d282613491565b602082019050919050565b600060208201905081810360008301526134f6816134ba565b9050919050565b7f43616d706169676e205570646174656400000000000000000000000000000000600082015250565b60006135336010836123fb565b915061353e826134fd565b602082019050919050565b600060608201905061355e6000830185612480565b818103602083015261356f81613526565b905061357e6040830184612480565b9392505050565b7f46756e64732077697468647261776564206265666f7265000000000000000000600082015250565b60006135bb6017836123fb565b91506135c682613585565b602082019050919050565b600060208201905081810360008301526135ea816135ae565b9050919050565b60006135fc82612199565b915061360783612199565b925082820390508181111561361f5761361e612ff0565b5b92915050565b7f46756e6473205769746864726177616c00000000000000000000000000000000600082015250565b600061365b6010836123fb565b915061366682613625565b602082019050919050565b60006060820190506136866000830185612480565b81810360208301526136978161364e565b90506136a66040830184612480565b9392505050565b7f4f776e61626c653a206e6577206f776e657220697320746865207a65726f206160008201527f6464726573730000000000000000000000000000000000000000000000000000602082015250565b60006137096026836123fb565b9150613714826136ad565b604082019050919050565b60006020820190508181036000830152613738816136fc565b9050919050565b7f4f776e61626c653a2063616c6c6572206973206e6f7420746865206f776e6572600082015250565b60006137756020836123fb565b91506137808261373f565b602082019050919050565b600060208201905081810360008301526137a481613768565b9050919050565b60006137b682612199565b91506137c183612199565b92508282019050808211156137d9576137d8612ff0565b5b92915050565b7f556e617574686f72697a656420456e7469747900000000000000000000000000600082015250565b60006138156013836123fb565b9150613820826137df565b602082019050919050565b6000602082019050818103600083015261384481613808565b9050919050565b7f4e756c6c2076616c7565206e6f742061636365707461626c6500000000000000600082015250565b60006138816019836123fb565b915061388c8261384b565b602082019050919050565b600060208201905081810360008301526138b081613874565b9050919050565b60006138c282612199565b91506138cd83612199565b92508282026138db81612199565b915082820484148315176138f2576138f1612ff0565b5b5092915050565b7f4e487b7100000000000000000000000000000000000000000000000000000000600052601260045260246000fd5b600061393382612199565b915061393e83612199565b92508261394e5761394d6138f9565b5b828204905092915050565b600081905092915050565b50565b6000613974600083613959565b915061397f82613964565b600082019050919050565b600061399582613967565b9150819050919050565b7f496e76616c69642069642072616e676500000000000000000000000000000000600082015250565b60006139d56010836123fb565b91506139e08261399f565b602082019050919050565b60006020820190508181036000830152613a04816139c8565b905091905056fea2646970667358221220bbc6df4762181e36098114bca881b0cb8c82a6eda8e40bef18ba9bf7015f18bd64736f6c63430008130033",
  "linkReferences": {},
  "deployedLinkReferences": {}
}